029885181120330758250901170207450009011707450009011708000007121600000000000000000000000000000000000000001800180018001800060006002100210000000000000000000000000285031815152512160101172802171404172104170105171506170709171210170211171511172512170101181302183003180000160010000000160010000000160010000001
290115070604121515121604121515131304121516060904121512445005121512464805121513450508121513455608121513455908121514451208121517003716011617264916011621133303041621493503041613571509041613591809041609184626041609205926041621121410051621124510051621124610051621151810051614324020061614341120061616293204
0716163219040716053637160816053734160816105916121216135138121216103810241216104131241216                                                                                                                                                                                                                    
                                                                                                                                                                                                                                        00019928720000167794000000170600015832050000193151000024187300000000
060009580006790010840019360076690009730032320029090064370054130203420024610062250001252410000004774400000000000001039770000000000000001648960000000000000597000500000000001273000000000600000000000990000000003906000000001241000000000000072600000000960000000000000000036000000000000000000270000000000000
0000000001000000000001000000000001000000000019000000000032000000000021000000DATA        HORA      INTE  FERN                                                                                          CONS                                    PSAZ                                        PDIA              
                                  ERRO            ALER                NIMP      DIGI                      20099624094500080915201004440930000911152010044408450008121520100444091500070116209999980815000502162099999810150008031620100444090000060416200998801000000905162008925409150007061620112033084500
0707162011203309000008081620110036094500080916201120330900001010162011203308000009111620110036080000071216201120330745000901170100000000000000000000000000000000000000000000000000000000000000000000000000000113011011520500000606060060006092920600060000000000060006000000000033332                       
SALV001     000600020000000400020000000500020000000600020000000400010000000500020000000500010000000600030000001500090000001700090000001600100000001600080000000900040000000400020000000700040000000300020000000400030000000500030000000400030000000300030000000400020000000500030000001000060000000400040000
SALV002     000300030000000500020000000300030000000300010000000500020000002900030000002700030000000800060000001200070000001700090000001100060000001000050000001400090000001300060000001200070000001300060000001200070000001100060000001300070000001200080000001100090000000500040000000500030000000500020000
SALV003     000300020000000400020000000600030000000500020000000500030000000500020000000600030000000400030000000500030000000500020000000500030000000400030000000400030000000300020000000400030000000400030000000300020000000300010000000200020000000400030000000300030000000400040000000700040000000300030000
SALV004     000400030000000700040000000600050000000800050000000600050000000500080000000700060000001400080000001400090000001300080000001300090000001200080000001400090000001400090000001200080000001400100000001200070000001300080000000600050000000600050000000600040000000500040000000500030000000500030000
SALV005     000400030000000600030000000500040000000800050000000500040000000500040000001800030000002400040000000300020000000400020000000500020000000600020000002000030000001900030000001600030000002000020000001800020000001800020000001800010000001800020000001500020000000400020000000400030000000300020000
SALV006     001100020000000800020000000400020000000900010000002100020000001200020000000500030000000600020000002900020000001200020000002500020000003100030000003200020000004900080000003400090000003200080000002700080000001500070000001400070000001500060000001400070000001500080000001500070000000900040000
SALV007     000700030000000700020000000700020000000700020000000600020000000700020000000700030000000700030000000800020000000800030000000700020000000800030000000800040000000700030000000700040000000700040000000800040000000800030000000600030000000600020000000700040000000700030000000800040000000800040000
SALV008     000700040000000700030000000500030000000600030000000500030000000500030000000400040000000500030000002500040000000300020000000400020000000300020000000300030000000400020000000400030000000400030000000400040000000400030000000300020000000300020000000300030000000300020000000400040000000500030000
SALV009     000400040000000300030000000300020000000200020000000300020000000300030000000400030000000300030000000300030000000200020000000300020000000200020000000300020000000300020000000300030000000300030000000400030000000300020000000300030000000300030000000400030000000400040000000400040000000300030000
SALV010     000300020000000300020000000300030000000300030000000300040000000400030000000200020000000300010000000300020000000200010000000300020000000300020000000300020000000200020000000300010000000200020000000200010000000400020000000300030000000400030000000300030000000300020000000300010000000200020000
SALV011     000400030000000400020000000300030000000300020000000300030000000300020000000300030000000400030000000400030000000400020000000400030000000400020000000400010000000300020000000400010000000300030000000500020000000400040000000400020000000300020000000300020000000300020000000300020000000400020000
SALV012     000300030000000300020000000300020000000300010000000200010000000300020000000300020000000400020000000300020000000300030000000500050000000400040000000500070000000400050000000500060000000500060000000300020000000900210000001200050000003600020000002400020000000400030000000700030000001100050000
SALV013     001100060000001000050000001200070000001100060000001100060000001100070000001100050000001700090000001400100000001100080000000500020000000400020000000400020000000600010000007701010000013601820000004400660000010001100000000500040000000300010000000300010000000300010000000400010000000700050000
SALV014     000600030000000400020000000600020000000500010000000400020000000400010000000400020000000600020000004200340000003000240000001700060000002900030000010100820000022501990000024302030000010500670000009200640000008900630000009200700000009100690000008800650000009800910000014801830000016501860000
SALV015     014301830000012401750000013401760000007501380000007501460000017101890000018301890000033703170000019101910000018501970000014501770000025402620000055804050000050403960000025602430000018101930000019902080000012001790000004701280000035402600000002300140000000500020000011100890000039602360000
SALV016     039402450000016301510000015201280000000500040000020601740000042602840000042303640000052103940000057104150000026102440000024702210000031401980000010000680000010700750000009600680000016901550000034102060000030602100000022101310000001100070000010500920000032902120000004000240000008300670000
SALV017     020601650000009600580000004500540000001300020000001900020000000300020000000400020000000300020000000400030000000300020000000400020000000300020000000400020000000300010000000300020000000300010000000400020000000300020000001700020000000400020000000300020000000300020000001600020000001400010000
SALV018     004400010000005700020000004800030000004400010000004500020000003000020000002900000000000600020000000600010000002100030000002800070000002900060000002900070000001700070000002500060000004100100000001900110000001800120000001700120000001900130000001800120000001800120000001700110000001800120000
SALV019     001800120000001600110000001100090000001100080000001100080000001000070000000800030000000600030000002000030000002600030000002800040000001500040000000600030000000600030000000500020000000600030000000600030000000600030000000700040000000600030000000600030000000500020000002600030000002700020000
SALV020     002700020000002700020000002700020000002600010000001800010000000600010000000700040000000900040000000600030000000500020000000500010000000500010000000600020000000500000000000600020000000500020000000900020000000700000000001500010000002900010000002700010000000500020000000400010000000400020000
SALV021     000300010000000400010000000500020000000500020000000400030000000500030000000500040000000400020000000400030000000400020000000500040000000400030000000500040000000400030000000500030000000400030000000400030000000400040000000500030000000500040000000400040000000400030000000300030000000500030000
SALV022     000400030000000400030000000400040000000400030000000400030000000300030000000300030000000400020000000400040000000400040000000400030000000300030000000300020000000300020000000300030000000400030000000400030000000500040000000300030000000400020000000400040000000300020000000400030000000400030000
SALV023     000400040000000300020000000300020000000300020000000300030000000400030000000400030000000300030000000400030000000300020000000300020000000300020000000300030000000400030000000400030000000300030000000300020000000400030000000400040000000300020000000400030000000300030000000400030000000300020000
SALV024     000300020000000200010000000200020000000300010000000400040000000300020000000300030000000300020000000300020000000300030000000200010000000400020000000600040000000700050000001100130000001300150000006100850000024901700000025001790000030901980000027201920000033602090000032302090000035002170000
SALV025     027501950000032001980000028401930000034002120000039902430000023401750000037902230000023701720000036602180000021802170000018001840000020501870000017601820000021402410000052503850000059004060000043703470000059004010000044303550000054403820000042702930000000000000000000000000000000000000000
SALV026     000000000000000000000000000200020000000500040000000500030000000400040000000400020000000400030000000500060000000800100000001700160000001400120000001400120000026901840000023101870000036002190000030102330000017401190000014301200000036002170000026301870000032902240000042203270000020102000000
SALV027     040903350000021402080000030602750000044303600000055904000000042803520000052003840000047203660000049603800000013500960000000000000000000000000000000000000000000000000000000000000000000000000000000600070000001500380000000600050000000700040000000600050000000800070000000600050000008500760000
SALV028     011300740000000700040000000500050000000500040000012200780000015701310000019501910000019901910000019801910000020801940000020201970000022302020000021901970000020901930000015301470000000700040000000600040000002300130000003100060000001300040000001100060000001400050000002800080000002000090000
SALV029     003100070000001200080000002100070000004200080000003300090000001300080000001800080000004100090000002800070000002600070000001500080000000800050000002500040000002600030000002600040000001400040000000700040000000500030000000300020000002700030000000500040000000500040000001800030000004100040000
SALV030     003200030000001100030000002200020000002500030000002500030000002700040000002700030000002600030000002100020000000600020000000500020000000600020000000600030000000600020000000600030000000700020000000700030000001600020000001100030000000900040000000800030000000900030000000900040000000800020000
SALV031     002400020000000900030000000900030000001800040000002300030000000900040000000900030000000900020000000800020000000900030000000900030000000900030000000900030000000800030000000800020000000800010000001000050000001600080000002300080000003000080000001800070000002000060000001500080000001500080000
SALV032     002100080000004000090000001500080000000700040000000600020000000600030000000600030000000700040000001800040000002200040000001600020000000500030000000500020000000600020000000500030000000500020000000600030000000400020000000500020000000400010000000500030000000600030000000500030000000600040000
SALV033     000500020000000400030000000500020000000500040000000500030000000500030000000400020000000400010000000400010000000400010000000500030000000400020000000500020000000400010000000400020000000400010000000500020000000500020000000400020000000500030000000400010000000400010000000400010000000500030000
SALV034     000600030000000600050000000600040000000600030000000400030000000500030000000500030000000600030000000500040000000600040000000500020000000400030000000400020000000400030000000500040000000400040000000500030000000300030000000400030000000400030000000400030000000500030000000400040000000500040000
SALV035     000400030000000500030000000400030000000500040000000400040000000500040000000400040000000300020000000400030000000400030000000400030000000400040000000400030000000500040000000300030000000400030000000300020000000400030000000500040000000500040000000400030000000300030000000400020000000300030000
SALV036     000400030000000500040000000600040000000500040000000400030000000300020000000400030000000400030000002200440000022901610000034802100000025001780000023401700000035202120000039202320000024101800000031101940000037002210000033602180000028701910000041002420000020201660000038502310000032702030000
SALV037     022601680000036402190000034102030000039602330000021001650000036902190000040802470000015501480000036902160000030602040000036102170000040602380000025801910000036502180000035202180000026501870000014600870000000400020000026801700000024501430000003000030000003000040000002300030000000400020000
SALV038     000400010000000300020000000400020000000400020000000400020000000400020000000600020000000500020000000400030000000300020000000300020000001200070000001100080000001000050000001000060000001100070000001200090000001200080000001100080000001300070000001200070000001200070000000700040000000400030000
SALV039     000500040000000400030000000500030000000400020000000400020000000300020000001300030000002000030000000600030000000500030000000400030000000500030000000300020000000400020000000500030000000600030000000600030000000600030000000500020000000400020000000300020000000400030000000400030000000600030000
SALV040     000600040000000700030000000600040000000600030000000500040000000600030000000500040000000300020000002600030000000900040000001000050000000600030000000600040000000600030000000500040000000500020000000400020000000600040000001000030000002100030000000500040000000500030000000400030000000500030000
SALV041     000600040000000600040000000600040000000700030000000500030000000600020000000500020000000400030000000500020000000500030000000400020000002400020000002600020000001200070000003100080000003100070000001100060000001100070000001000050000001000050000002700050000001100060000000700040000000400030000
SALV042     000600060000000600060000000500060000000700060000000700080000000700070000000600060000000600070000000600060000000500050000000600060000000800070000001400090000000700030000000400020000000300010000000400010000000400000000000400020000000500020000000600030000000500020000000500020000000500010000
SALV043     000500020000000600020000000600030000000600030000000600030000000500020000000500020000000600010000000600020000000700040000001400030000002600030000002800050000002600040000001300020000000500020000000600030000000500030000000600030000001800030000002000020000000600020000000400030000000700030000
SALV044     000600040000000700040000000600040000000500010000000500010000000500010000000500020000000500020000000600030000000500020000000500010000000500010000000500020000000600020000000800030000001800020000001200030000000600020000000500020000000700030000000600030000000800040000000700050000000800050000
SALV045     000600030000000600030000000600030000000600040000000600040000000600040000000600050000000600040000002400030000001400030000000500040000000600030000000600050000000700050000000500040000000500040000000500030000000500030000000500040000000600030000000500040000000500040000000500040000000500020000
SALV046     000400020000000400020000000500030000000500030000000400030000000500030000000500030000000400020000000400020000000500030000000400030000000500030000000500030000000400030000000500020000000400030000000400020000000500030000000500030000000400030000000500030000000500020000000400010000000400020000
SALV047     000400030000000600030000000500030000000400030000000400030000000400020000000400020000000500020000000400020000000600040000000400030000000600040000000400020000000500030000000500030000000500030000000500040000000500040000000400030000000500030000000500030000000400030000000400030000000500030000
SALV048     000500030000000500040000000400030000000500030000000400020000000400030000000400020000000500030000000500040000000500040000000500040000000400020000000500030000000400030000000500040000000600040000000600050000000500030000000400030000000500030000000400030000000500030000000500040000000500030000
SALV049     000400040000000500030000000400020000000400030000000400030000000500030000000500040000000500040000000500030000000500030000000500030000000600040000002500040000003000040000003400030000002900040000003000050000001800080000001700070000001800060000001900060000001600070000002200070000002000080000
SALV050     002200070000001800070000001900070000001900040000000900020000000700030000001200030000001300030000000900020000001000030000000800040000000500020000000400020000000600020000000500030000000500030000000500030000000500030000000600040000000500030000000500020000000500030000000600040000000500020000
SALV051     000600030000000600020000000400010000000600010000000500020000000600020000000500030000000400020000000500030000000400020000000500030000000400020000000400020000000400030000000500020000000500030000000300010000000300020000000400020000000400030000000300020000000400030000000400030000000300020000
SALV052     000400020000000500020000000500020000000400020000000500020000000300010000000300020000000400020000000300030000000500020000000400030000000500030000000400030000000600040000000700030000000400030000000400020000000400030000000500030000000500040000000400030000000500030000000500040000000600040000
SALV053     000400030000000500040000000300020000000800040000001000060000002000110000001300140000001300130000001300130000001300140000001300130000001300130000001400140000001300130000000600090000000900050000001100030000000300020000000500040000000400030000000500030000000400030000000400030000000400020000
SALV054     000300010000000600040000000500030000000500040000000500020000000800030000001100020000000600020000000600010000000700020000000900020000002500010000002500020000002200010000000500020000002000010000002400020000001700030000001600020000002500020000002500020000001000010000000600030000000500020000
SALV055     000700040000000500030000000700030000000500030000000600030000001200040000003100030000000900040000000500040000000600040000000600040000000500040000000600030000000500030000000600040000000500040000000600040000000500040000000400020000000400030000000500030000000500030000000500040000000900030000
SALV056     002600040000002400020000003600020000003900020000002600030000002100030000000500030000000500030000000500020000000600030000000500040000000500040000000400040000000500030000000400040000000400030000000900070000001100070000001100070000001200090000001100080000001100080000001100070000001100080000
SALV057     001000070000000400030000000500040000000400040000000400030000000300020000000300020000000400020000000300020000000400030000000400030000000300020000000300010000000200020000000300010000000200010000000400030000000300020000000400030000000300010000000200020000000300010000000200010000000400030000
SALV058     000400030000000300030000000400030000000300020000000400030000000300030000000500040000000400040000000400040000000400030000000400030000000300020000000300030000000400030000000400030000000400030000000300030000000300020000000300030000000200020000000400030000000400040000000300030000000400030000
SALV059     000200020000000300020000000300020000000500040000000400040000000400030000000300030000000300030000000300020000000300020000000300030000000400030000000300030000000300030000000300020000000200020000000300030000000400030000000300030000000300030000000400030000000300020000000300030000000300020000
SALV060     003300060000001900080000001100080000000400030000000300030000000400030000000600080000000700080000000600060000012301590000018201900000016201870000007701380000004101260000015701900000017001920000017201920000018501930000017901910000018501910000019201880000019101910000019801900000019501900000
SALV061     021201930000021801970000020401920000022802010000019301920000017501890000018201910000011301270000000500040000000500030000000600080000000600070000000700080000000700080000001500330000015101460000030101950000038902370000021801760000025901680000000600030000006300580000026301950000023301650000
SALV062     022401630000026601740000031301960000017601540000032201960000018501590000027201790000032201950000015901030000000700040000000000000000000000000000000000000000000000000000000000000000000000000000000000000000000000000000000000000000000000000000000000000000000000000000000000000000000000000000
SALV063     000000000000000000000000000000000000000000000000000000000000000000000000000000000000000000000000000000000000000000000000000000000000000000000000000000000000000000000000000000000000000000000000000000000000000000000000000000000000000000000000000000000000000000000000000000000000000600040000
SALV064     001400090000001700090000001700090000001500080000001400080000018902070000041503390000051903720000040903470000047303450000020001950000022802030000044103550000038603440000046503510000038203370000037503300000045303510000020602050000020401950000032803010000034303360000031102810000018801540000
SALV065     013601430000029501870000019001500000018301600000030101870000021501680000023201740000029601860000016201540000033702060000022601710000026401730000011801460000011601370000031701970000012101410000031802000000011600800000000700040000000500030000000500030000000500020000000500020000000400020000
SALV066     000600040000000500030000001100030000001300030000000600030000000700040000000600020000000600020000000500020000000700030000000600030000000700040000000700030000000700030000000600030000000500010000000500010000000600020000000600030000000500020000000600020000000500020000000500020000000500010000
SALV067     001200030000003200040000003100030000001200040000000600030000001000040000001400030000002700030000000900040000000900040000001000040000004600790000016801430000032501980000027301840000022201620000035502110000023201730000037302250000021801680000032601970000025401740000030701930000027201810000
SALV068     022301650000028901740000000900050000013101310000023801650000031301900000018301520000028801890000025401780000026801800000018601560000018601500000031001890000023701680000015501530000012400870000001200300000000700040000000700040000000700040000000700040000000700040000000700040000000700040000
SALV069     000800050000000700050000000700040000000700040000000600040000000700040000000700030000000700040000000700050000000600030000000600030000000600030000000600030000000700040000000700050000000700040000000700030000000600040000000600030000000900040000000900050000003800900000021201600000028401820000
SALV070     020901610000020401590000028001810000024501710000018701650000030701920000033902040000021401670000028001810000032801990000019201660000029501880000022801700000016701520000025101700000023401710000019401600000028401820000015401500000017401510000002400250000000500030000000600030000000600030000
SALV071     000700040000000700040000000600040000000600020000000500020000001200040000003900070000001800080000003600080000003600070000005100080000001600060000001400070000001200060000001300070000002100070000002700030000001900020000000600020000000600030000000600020000000700050000000700030000000700020000
SALV072     000700030000000700010000000600010000000700020000000700020000000700030000000900040000000800030000000700030000001000060000000900060000000900070000000900040000000800040000000800030000000700010000000800030000013301210000023002050000019701970000020901940000024402080000020401910000019901980000
SALV073     022902000000028302780000032203220000038903350000046403630000035303400000043703460000051403840000032903290000046203610000055804050000034303370000042703520000035803130000052203730000035703380000052103820000040803580000043903530000048103690000045503630000039903480000047803690000054703920000
SALV074     045503600000038903460000051903890000054803970000057304090000030503310000035402210000017101570000024701690000034102040000017201560000026301760000028201800000014501510000028701820000031701940000019201570000016701480000037102660000044803680000047003660000052303900000031403260000050603760000
SALV075     032803260000038103410000050603850000049803880000036303400000049303710000055003990000036403420000048503720000053803960000023302270000016302020000036003440000046703680000045503660000034703330000045303580000048603730000035203320000048903680000037003150000018202070000029503140000042703470000
SALV076     041203580000019902470000018301870000015601820000015901820000013501790000018801920000023302740000040703370000053503840000031703110000036202410000036102490000023401640000026801800000018801600000034802080000032902200000021001600000033302010000029701840000027001830000013701440000029601880000
SALV077     037702250000034402110000021201660000033802000000034102080000015901510000030101880000037302200000014901480000031201920000033902020000015501480000025401700000030601870000022401420000002200140000000900020000000800020000001200080000001200080000001200080000001200080000001100080000001200070000
SALV078     003400070000002500060000001500030000000800030000000800030000000800030000000800010000000700020000000800020000000800010000000900020000000800030000000800020000002300020000000800020000000800010000000800020000000800020000000900030000000800020000000900030000000900020000000800020000000700020000
SALV079     000800030000000900030000000800040000000800040000000800040000000800020000000700030000000800030000000900050000000900040000001000040000000900040000000700030000000900030000000900080000007401340000012301360000016601450000024101640000027701770000015001390000029501720000028401770000011201420000
SALV080     024601610000028301820000009901350000025101710000016301580000019401580000030201890000012001440000022501650000020601630000012801450000027601810000013801540000018101550000027701810000014201470000022801640000028201840000009201380000023501650000022301680000013301400000027601780000013701450000
SALV081     021401660000031201940000010701420000017301520000022801680000011601390000005400810000000700030000000700050000001100130000002300190000001000070000000600030000000400010000000600020000000500020000000600030000000600020000000500020000000500010000000500020000000500010000000500030000000600020000
SALV082     000600030000000500010000000500020000000500020000000700030000000700050000000700040000000700040000000600030000000500030000000600030000000500020000000600030000000600030000000500030000000600030000000500020000000500020000000500020000000600030000000600030000008101010000028501800000024301690000
SALV083     027501870000031802040000028101820000026501840000023301730000029201880000000500040000000600030000000600030000000500020000000600030000000600030000000600040000000600030000000500020000000600030000000600030000000600040000000600040000000600030000000700040000000700030000000800040000000700030000
SALV084     000600020000000700040000000900040000000800040000001000050000001000040000001000070000000900040000000900060000001000060000001100070000007900810000036602140000029802030000014900890000001800050000003000170000003400040000010100510000009400490000003500060000003200120000002900180000002200080000
SALV085     002100090000002500150000002500140000002000070000008600750000002700100000002800100000016301390000031102820000048803570000058503960000044503500000049703710000053203740000044203480000041103420000044903370000020801930000038803420000048203580000047903560000042203330000035903300000051603700000
SALV086     056503930000041503470000052403730000043303560000045903490000051803720000026601520000001700080000008800660000036202140000027401860000021801400000001400090000003200460000021501650000031601940000028501960000026701800000036202130000022701730000024101710000036002170000039203380000048203620000
SALV087     055703820000060904000000044203470000041803330000056603870000060104000000041603400000049903610000053003740000047603650000030902520000007300760000011701330000035302140000052203780000036403270000050103600000059303880000040103410000051003590000052603660000040403370000055003790000052203750000
SALV088     045603720000052503890000059104160000045203600000039703320000055403850000052003810000029502350000029002870000040403350000049003600000046403350000032402790000030803240000045203520000045303580000032703210000020502570000051103630000053203710000047103620000038402880000042102520000025801720000
SALV089     017101480000031101900000031901930000005600380000000600030000005900560000013101380000032401980000032701970000026601780000016701510000024101650000027601740000024601570000024101580000014801510000001500080000001500090000001400080000001400070000001500080000001400080000001400080000001500080000
SALV090     003000080000002600080000002500070000002200060000002600070000003100060000003100050000001600040000000800050000001900030000000900030000002100040000002200030000002000050000000800040000000800050000000700040000000800030000000700030000000700030000000800040000000700040000000800040000000600030000
SALV091     001800040000000700030000000700030000000700030000000700040000000700050000000700040000000700040000000700030000000700040000000700050000000700040000000900050000002500040000001700040000000400040000000500040000000600060000000600050000000700050000000700050000000700060000002300040000002000050000
SALV092     004200850000011901370000021401610000030301900000022001670000016301460000030001800000032401980000018201580000023201660000030901910000016201510000031601990000011301370000025801730000030901900000012301490000021401580000032501960000014801450000020001520000033102030000014701460000024701670000
SALV093     031601920000014101450000023001620000015100920000000900050000019201300000033802010000028101840000025601700000013301450000024201660000024901660000015101460000018901530000024101650000023101630000012401400000022301600000025901720000012601310000000800040000003100340000020401540000021301560000
SALV094     022201590000016201600000028401810000024301740000020001580000031201910000024801790000018401600000030601910000029101890000015501490000026001730000034002060000013101510000024901700000029001890000015601500000028801850000035402110000005400460000000600050000000700040000000700050000000700050000
SALV095     000700050000000600030000000600030000000500030000000600020000000700040000000600040000000700040000000500020000000500020000003600070000002100070000001400090000001400100000001500090000001400090000001300070000001200070000001300080000000600040000000700040000000500030000000600040000000800040000
SALV096     000900040000000900050000001000090000001100100000000700080000000700060000002200430000001400290000024501690000022301630000019001250000001000150000001300400000000800030000000500000000000900060000000800070000000800060000000700040000000800030000002600030000002600030000010500910000025302370000
SALV097     037103150000049703640000052903790000037003350000051703800000028702530000025702460000039103430000046903570000043503570000045103610000050303640000035303320000050903680000030902510000026102460000037503300000048303480000048503570000026301780000034703150000053003790000041603480000041703510000
SALV098     048503680000036703340000032903150000048503560000039803260000023702360000022801610000034802080000026901730000009201410000009701290000019601500000031401910000022001630000002401100000000700020000000600020000001100030000001200070000005800690000020401940000029103010000035203220000047003540000
SALV099     040103440000035503350000041203460000059604030000051303780000031603200000045803520000057604020000049403700000034603310000047103550000054303800000034603310000046803510000052703800000042103480000045103560000054104020000047303700000036803390000055303860000047703640000036003320000054803840000
SALV100     047203670000038603510000046203580000057304040000057103940000032403300000038703360000056503950000046103550000043303630000044203620000048303780000051403880000039603590000031503190000036902910000010300980000021501630000028101770000024501650000022001560000013601510000026601820000028001770000
SALV101     015101520000020401570000028901800000014801440000012801340000026701640000029201790000023201590000010201360000025201660000028201760000026501660000026201630000024501620000008300610000001000020000000900020000001000020000000900020000000900020000002500050000003600070000003600060000003400060000
SALV102     001500040000000700030000002700060000000900060000001000070000002100080000001600060000003700070000005400060000003200060000001600060000001200060000001300070000001500110000001700100000001500110000001200090000000800060000000800060000000800060000001500070000003300060000003400060000003200030000
SALV103     001900030000002100020000001000020000000500020000000700020000000900030000000900040000006001010000008401170000014201550000026901740000024501710000005601290000021901620000032301950000020701530000036102080000023001730000026101810000033502030000012601440000023501650000034302000000013301450000
SALV104     017701570000025601660000012601440000004000290000000900020000021001600000032702000000013201480000031201920000013201420000016801460000027301790000011701400000028601850000015501570000019101590000031401950000010201360000031101960000023801830000018301590000036202190000007100460000000600030000
SALV105     007500740000012801400000027701860000027301830000019401710000031601950000010401360000030101930000033502030000013101520000027701830000018901510000000600060000000600010000000600020000000700030000000600020000000600010000000500010000000500010000000700030000000700030000000600030000000800030000
SALV106     000600030000000700020000000600030000000700030000000700040000000700040000001600380000005101280000014801430000029801880000014701470000011901420000029001890000010401420000025901790000025201710000012401440000028901830000001200200000014501500000028501900000029401870000010301380000020401630000
SALV107     025701740000008901400000026801780000020501540000008801340000028901850000020901550000012001490000027601820000013301390000021801610000016501450000003100420000000800040000000700030000000600030000000800030000000600020000000600030000000600030000000600030000000600020000000500010000000500010000
SALV108     000500000000000600010000000500020000001100040000001300050000001200050000001300050000001300060000001500080000001700090000001700110000001300060000002600170000000700030000000700030000000700020000000600020000000600020000010301420000015701880000020801990000022202010000024702750000031503260000
SALV109     036803330000041003420000051103790000043603570000039703450000052703790000047203700000040803420000052803850000047603660000040403390000051403760000054403830000031003180000044903450000057103940000040803470000038803380000056103950000052403800000040103330000044603520000047203490000056003970000
SALV110     031203140000044603560000044703410000037602740000017901530000016901490000030001860000031301950000011001370000026901760000037402190000014001400000028901700000040002240000019801640000013201350000027901720000031501900000014401500000028001770000036302180000012601440000016100970000000400020000
SALV111     008100690000050803800000057703970000040903420000042903400000056603870000057704050000032303280000048103600000057403910000053103870000043103420000065704240000055903850000045403750000046503430000042203230000039103110000020101770000027102570000038803300000054203900000057003960000043703650000
SALV112     036103310000053503780000060104180000060504190000035602860000030702510000017901270000009400670000009100670000002000110000000700020000000800030000000600030000001100140000005100630000023302930000035603300000043903490000038203420000044903510000042003450000047203620000039503540000048703760000
SALV113     045603670000031103260000027301890000023701820000015501530000023301630000027801780000001400160000001000100000001000090000000500020000000400010000000300000000000500020000000400010000000200000001000400000000000400010000000400000000000400020000000400010000000500010000001700010000002800010000
SALV114     001400020000000600010000000800000000001200010000002000010000003200010000003100020000003100020000003100010000003100010000002200010000002100040000001500030000001400020000001500030000002500030000001900020000001500030000001700050000002200130000001900130000001800130000001800130000001800130000
SALV115     001800110000001700110000001700110000001800120000001800120000001200090000001000080000003800720000008701300000016301410000023501560000028101710000011201380000017901480000023101600000026801740000012301410000022401620000026001730000028201860000026401770000016001530000027601790000028101810000
SALV116     018101560000026201800000025401690000028301830000013701490000031601800000030801770000017501510000024801630000028901800000030801890000033702020000025101690000011501440000023001620000027601770000029101850000031101910000019901670000015801500000026401640000028901700000030901880000023801520000
SALV117     003800680000016901550000025801700000026101710000017601530000015901500000030601900000031401930000027901780000014601540000021801600000027001740000024601710000008501330000025201690000027201760000017001530000016501480000023601680000025901720000026901750000011401430000022101640000025601690000
SALV118     028201790000020601560000011101390000030001870000026901750000024901670000015601610000024601680000009600880000000700030000000700040000000600030000000500020000000400020000000400020000000400030000000500030000000400040000000300030000000400020000000300020000000300030000000400030000000400040000
SALV119     000400030000000400020000000300020000000300010000000300020000000300020000000400020000000300020000000400030000000300010000000300020000000300010000000300030000000500030000000400040000000500040000000400040000000400030000000400030000000300020000000500040000000400040000000400040000000500040000
SALV120     000300020000000300020000000300030000000300020000000400020000000400030000004200470000023002040000022402010000024002030000031503020000035603290000042003440000052003770000061604270000055303960000040403530000049803800000060704230000062604270000051103940000045003660000055103920000054003820000
SALV121     064904330000042302940000022202000000032702390000053703940000041403530000043503400000049803570000057303910000051403730000040103390000043303400000049903620000050103650000039303070000021701860000021201810000005700230000001000030000000600020000000500020000000600020000000500020000001000040000
SALV122     001000150000000400020000000600020000001000060000001000060000001000070000000400020000000400020000000300010000000300010000000300000000000300010000000300010000000300010000000400020000000200000000000200000000000700030000000500030000001800020000003500070000003000060000001100060000001200060000
SALV123     001100060000001200070000001200080000001000060000001200070000001000060000001000070000001100070000000400030000000400040000000500020000000400030000000400020000000700020000000600040000000600030000001600030000000300020000000500020000000200010000000200020000000400020000000300030000000400020000
SALV124     000400030000000200010000000400030000000400020000000400040000000400040000000300030000000500040000000400030000000200030000000300020000000700050000001500080000002600120000002000140000001300120000001100090000001100070000001000060000001100070000001200070000001100070000000900050000001100070000
SALV125     000700040000000300030000000300030000000400030000000400020000000300020000000200020000000300020000000300030000000300030000000300020000000200020000000200020000001800010000001400030000000300020000000400020000000400020000000200020000000300010000000400020000000400020000000300020000000600050000
SALV126     000700070000001100060000002900060000000900050000002300060000002200060000000600060000000700070000000700060000000700060000000700070000000800080000000800080000000700080000000800080000000700080000000700080000000800080000000600070000000800070000000800090000000800090000000700080000000800090000
SALV127     000800080000000600080000000600080000000300030000000400030000000300030000000400040000000300020000000300020000000200020000000300020000000300020000000300030000000300010000000200010000000200020000000300010000000300020000000300030000000400040000000400060000000600070000000600070000000600070000
SALV128     000600070000000600080000000500070000000500060000000600070000000400060000001200020000002900040000002600020000000300020000000200020000000300020000000300030000000300030000000300020000000300020000000200000000000300010000003200010000003100020000001800030000003300030000002200030000000900020000
SALV129     000600030000000700030000000700040000000700040000000800040000000600030000000700040000000600030000000700040000000500040000000600040000000600040000000400030000000500030000000400020000000500030000000500040000000500020000000400020000000400010000000400020000000400020000000500030000000500030000
SALV130     000400020000000400020000000400010000000400020000000400020000000400020000000500040000000500020000000400030000000400020000000400020000000400020000000400030000000500030000000400030000000500020000000400030000000400020000000400020000000400020000000400020000000400020000000500020000000400020000
SALV131     000400020000000400010000000400020000000500020000000400020000000500030000000400030000000400030000000500020000000400030000000500020000000500040000000500030000000500030000000400030000000400020000000400030000000400020000000400030000000300030000000300020000000300010000000300010000000200010000
SALV132     000200010000000300020000000300020000000300020000000300020000000300020000000200010000000300020000000300030000000300020000000300030000001600030000002200030000002200010000002200020000002300020000002300030000000600030000000400040000000300030000000300020000001000070000001000060000001100070000
SALV133     001200080000001100070000001100070000001100060000001000050000001000050000000900050000000500030000000400030000000600050000000500060000000300010000000400010000000300020000000400030000000500030000000900030000001300030000001100020000000400030000000900030000000500030000000800030000000600030000
SALV134     001300020000001000020000001300030000003400030000002500030000001000030000001000010000001000020000001000020000001000030000000900030000001400030000000900020000001200010000000800010000001300010000001300020000001400020000000900020000000300010000000300010000000300030000000200020000000400030000
SALV135     000400020000000400020000000800030000002800020000000500030000000600040000000500040000000600030000000400030000000500020000000400030000000500030000000500030000000500040000001400030000000400020000000400020000000500030000000400040000000400030000000400040000000400040000000400040000000400030000
SALV136     000300030000000300030000000500040000000400040000000400040000000300030000000400030000000400020000000300020000000500020000000900030000001500020000001100020000000600020000000900010000000900030000000800030000000600030000001100020000000900020000000800010000000700010000000500030000000400020000
SALV137     000400010000000400010000000300010000000300000000000400010000000400000000000300010000000300000000000200000000000200000000000300010000000300010000000300010000000200010000000200010000000300010000000400020000000400030000002700030000003000030000002900020000002000020000000400010000000700020000
SALV138     001600030000003300020000003200030000003700060000002300070000001700060000002500070000001800070000002000060000002000060000002000060000002000050000002100070000001400020000001300020000001500030000001400020000001400020000001400020000001600030000003400030000004100040000002200040000001500020000
SALV139     003000040000002800020000002700020000001400030000000600020000000700030000000700030000000600030000000700030000000700030000000600020000000500010000000600030000000600030000000600020000000600030000000400020000001900020000002400010000001800010000000500020000000400010000000500020000000400010000
SALV140     000400020000000500020000000400030000000500030000000500030000000500030000000400020000000400020000000400020000000400030000000300040000000300030000000300020000000400030000000200030000000300030000000400040000000400040000000300040000000300030000000400030000000200030000000400020000000400040000
SALV141     000300040000000300030000000300020000000200010000000200020000000300010000000300020000000300010000000300020000000200010000000200010000000200010000000300010000000300030000000300020000000300030000000300020000000300020000000200020000000300020000000300020000000300030000000300030000000300020000
SALV142     000300020000000200020000000300020000000200020000000400030000000200020000000300020000000400020000000200020000000200010000000300020000000300020000000200020000000300020000000300020000000300020000000200020000000400030000000300030000000400040000000400040000000300040000000400030000000300030000
SALV143     000300020000000300030000001800040000003600070000001800090000001000070000001100060000001100060000001100060000001300070000002500070000001900070000000500030000000200010000000100000000000100000000000100000000000200020000000300020000000300020000001600020000000200020000000100010000000200020000
SALV144     000300020000000500030000000600040000000700050000000500030000000600040000000600030000002000350000000400030000000400030000000600030000000500020000000400010000000400020000000500020000000400000000000400020000000400020000000500020000000400020000006100750000017601880000018101880000021801960000
SALV145     008401330000005201160000005201210000016702030000033003140000039303330000053003800000047803670000055803910000051603850000045603560000054903870000044203500000059004050000047003650000044503470000064404340000034502680000024402240000024302640000018902400000039403250000041103330000016602410000
SALV146     032502920000040903360000026903030000043903440000036003270000037403150000029001820000022501800000028801840000036802130000022601690000034402070000026201910000023501630000032702020000020301580000031601920000027101670000000800050000001500100000029102850000051003680000053003880000033102870000
SALV147     020101900000033402890000059304200000049703850000058904120000040803360000048203650000045303450000022102010000035403160000046703620000038103060000018801910000029902730000051003860000031502790000030502870000062904330000052303920000055004000000064704490000049103800000056704070000059504460000
SALV148     049003710000043803150000037202460000045102780000027802150000038902700000035102250000018201940000036602530000016601570000031102080000020901710000031801980000030902530000009001370000023201660000023501750000001200600000000400020000000400010000014401340000035302150000023201670000036602110000
SALV149     029901960000028901880000027601920000024901730000026901850000028501830000028501930000023401670000035502120000022501630000030501890000022101800000000700240000000300010000000500030000000300010000000600020000000500010000000500020000001500020000002600020000000300020000000300020000000300010000
SALV150     000300000000000300020000000400010000000300020000000500020000002000020000001700010000000400010000000400020000000400020000000400020000000600020000000600020000000700020000000600020000000600020000000500020000000600020000000700030000000500020000000500010000001200050000001200050000001400060000
SALV151     001300060000001200050000001300050000001300050000001200060000001200040000000900040000000600020000007701190000022501540000028901770000012901360000028101750000023101690000025701710000028401780000012801400000024301650000026901730000021201640000020801630000029401840000018201570000020401560000
SALV152     028701800000029501820000010401350000019401510000022601600000027301740000027301800000015101470000026701710000019201580000012701380000019201510000024001630000009801350000014501380000021501550000014901440000012401360000018001470000016101480000010101360000018301470000021601540000011101350000
SALV153     017801460000023401600000016201510000014301390000025101660000024801650000015601360000024201630000025401710000014101440000024301640000018701540000013301380000026101700000021601690000016701450000028101790000012701430000021701580000021701660000012701390000024101650000015501500000021801610000
SALV154     028301800000022501660000018601500000027701760000015701450000021701550000022801590000012001420000018001480000006100630000011801160000021601530000023501560000022001580000015001380000020601510000021601590000012801400000017201450000011401020000000600040000000500030000000500030000000700040000
SALV155     000500040000000600040000000400020000000500030000000500030000000400010000000500020000000600020000000600030000000600030000000600020000000500020000000600020000000600030000000600030000000700040000000600040000000600030000000500020000000600030000000600020000000800040000000700030000000600030000
SALV156     000600030000000600010000000500020000000500040000000600040000000500020000000600010000000400000000000500010000000400000000000500000000000400000000000600020000004600550000017601930000022502000000027002650000042203420000052303820000061704290000046403680000064404320000054703930000057403960000
SALV157     056303900000030903010000048303660000054403820000019301940000036202910000045903590000058204030000052403930000062404190000056203890000046103610000056004000000042503570000057804020000048003830000050803860000056403920000023602090000022202020000048303800000056203940000046403620000048003840000
SALV158     058704210000051903940000058804290000065504430000041103600000042403160000034101980000020201590000035802090000020901600000035602080000021101600000031001900000032802040000021601610000036802140000020601630000036802160000039502310000019601530000037302200000024301760000032701970000041903290000
SALV159     048303580000058404020000037603000000022101940000049803650000060804120000044203390000025402090000038103060000065104350000056404060000047603540000064504260000047203290000029501820000037302140000020401580000035902120000025501830000029501980000033302080000019901530000036502140000024801820000
SALV160     029301870000047903310000026902040000048003690000056903940000063404400000052503940000062204310000057103930000049303920000015301040000011601100000013901260000009300620000003000190000000000000000000000000000000100010000000000000000000000000000000100000000000000000000000000000000000000000000
SALV161     000000000000000000000000000000000000000000000000000000000000000000000000000000000000000000000000000000000000000000000000000000000000000000000000000000000000000000000000000000000000000000000000000200020000000500040000000400050000000400030000000400040000000300030000000400040000000400030000
SALV162     000400030000000700040000001000030000001000020000001000020000001000020000001200040000001100030000001200030000001700050000003200030000003100030000003000020000002100030000001200030000001300020000001400030000001300030000001100020000001500070000002800060000002500080000001400070000001300070000
SALV163     001400070000001300060000001300060000001400060000001300060000000800040000000600030000000600030000000600020000000600020000000600020000000600010000000600020000000500020000000600020000000500010000000400000000000500010000000500020000000700030000000500030000000600030000000500030000000500020000
SALV164     000400020000000600030000001400030000003000030000000600030000000500030000000500030000001300030000002000020000001300020000002000020000001400030000000500030000000500030000000500020000000400020000000400020000000300010000000400000000000400020000000500020000000400010000000400020000000400000000
SALV165     000300000000000300010000000400010000000400020000000500020000000500030000000400030000000400020000000400020000000400010000000500030000000400030000000500030000000400030000000400020000000300010000000400020000000400030000000500020000000400030000000400040000000300010000000100000000000200010000
SALV166     000200010000000300010000000200020000000300020000000200010000000200010000000300010000000300020000000300030000000400030000000400040000000300030000000300020000000400030000000200020000000400030000000400030000000400040000000400040000000400030000000400040000000400030000000300020000000400030000
SALV167     000300020000000300020000000300030000000300020000000300010000000200020000000400020000000300020000000300030000000400030000000300020000000200020000000300020000000300020000000300020000000300030000000400030000000400030000000300020000000300020000001000030000001800030000000400020000000300030000
SALV168     006600940000029701860000023801730000029701870000036402160000022101690000033902080000036802190000019501680000036602210000024301830000029001910000039402330000021601720000033202000000038602250000015101430000029601830000036502130000032602060000025701720000036102100000046602930000012100920000
SALV169     008700630000008700600000008500590000009100800000021402070000033002800000042503070000014000840000006100700000000100000000000100000000000100000000000000000000000000000000000100000001000000000000000100000000000000000000000100000000000000000000001300050000002200090000002200090000001600080000
SALV170     001500090000001300080000001300070000001200070000001400070000001100060000000900050000000800030000000500040000000500030000000300020000000500020000000700030000000700030000000400020000000600030000000500030000000600020000000600020000000300010000000400010000015101760000034903130000051303760000
SALV171     056103950000038303360000048403640000055403900000038903390000055603920000055203940000036503220000048903640000052903840000039103370000047703550000038203130000019202550000035203040000048503780000040603390000057504000000046403730000038403370000054903860000055003930000039503390000038402270000
SALV172     024701830000029501880000026901890000024701740000037802240000030802080000017101160000000500020000020801420000035802110000032401940000018501580000036502130000034802040000019001620000036502200000035702040000015901480000036002130000031101910000022701750000015000900000007100640000036902180000
SALV173     036702180000016601540000033402100000036802180000019101590000029201820000040902390000019001140000000500000000004900450000036202100000023601680000026101720000035602090000022701590000002100140000000900060000001000050000001000060000001100060000001100060000001000060000001000070000001200070000
SALV174     001000060000001500060000001800040000001700060000001100070000001000060000001000060000001000060000002800060000001700050000002800030000002900030000002800020000002500020000000900030000001000030000001000020000000900020000000900030000000900020000000900020000000900010000000900020000000900010000
SALV175     000900010000001000020000000900020000000800030000000800020000000700030000000700010000000700020000000800040000000900070000000900050000000700020000000700060000000900070000000800070000000700070000002700070000002800060000001500070000000700070000000600070000000600070000000600070000000700080000
SALV176     000600070000000700080000000600060000000500070000000600070000000700070000000700080000000600060000000300030000000300020000000300020000000400020000000300030000000300020000000400030000000200010000000300020000000300020000000300010000000300020000000300020000000300010000000200000000000200010000
SALV177     000300010000000300010000000300020000000300020000000200020000000300020000000400030000000400030000000400030000000400040000000300020000000300020000000300020000000400030000000300030000000300020000000400030000000200010000000300020000000300020000000300020000000400040000000300020000000300020000
SALV178     000200010000000300010000000300020000000300020000000300020000000400030000000400030000000300010000000300020000000400040000000400030000000400030000000400040000000300030000000400020000000300030000000400040000000400040000000400030000000400040000000400030000000300030000002000070000001200080000
SALV179     001100080000001000070000001000060000000900050000001000050000000900060000000800040000000300020000000300020000000300010000000100010000000200000000000300010000000300030000000300020000000400030000000400040000000300020000001500010000002300020000002300010000002200020000002400030000002600030000
SALV180     001600010000000400010000000200020000004600710000014101380000024101670000034802080000022101690000036002250000026002300000028902540000040303490000052203800000047303650000047903620000060504200000050003790000045503620000057904080000041203520000048303660000058304110000041603610000046503680000
SALV181     035302800000044803840000047603760000038003330000053403890000048503740000041003380000055403950000047603480000020701910000035302970000039003370000049303640000051903770000041703430000042303400000053703820000037903420000045403600000051103690000049603640000030403110000045403460000057103920000
SALV182     051003640000032503160000044703410000050503710000040602710000027901790000020401520000034702010000036702200000019101570000030001900000036202170000037802240000018001600000027401770000038502250000029201900000017501460000032501940000039202260000031101950000031402980000038203000000024002590000
SALV183     053403850000057203940000034003260000048603730000050603840000037603370000058004000000045803600000041703540000035703260000043203440000056504000000047703740000039603280000056303990000036402890000020301890000020401910000019601910000018301860000022802080000040403300000048603540000054603850000
SALV184     066404420000042003550000029502810000036303000000039103170000021902820000025402780000028102490000023201980000035503040000043003210000026602110000028702090000025601780000031101890000029101820000011201370000016601460000026101700000028701790000027601810000012701370000022101640000028401790000
SALV185     030901880000015301450000022401600000030401880000029501840000001000070000000000000000000000000000000000000000000000000000000000000000000000000000000000000000000000000000001600120000000800040000000600040000000300030000000300020000000200030000000300030000000300020000000200020000000200020000
SALV186     000400040000000200020000000300030000000300030000000900040000002000010000000400020000000500020000000600020000000500020000000600020000000500020000000500010000000500020000000500010000000400000000000600020000000600020000000500020000000600020000000500010000000600020000000400000000000400000000
SALV187     000600010000000400010000000500000000000600020000000500010000002500010000000800000000000400010000000600010000000500020000000500010000000500030000000500020000000600010000000700020000000700020000000700030000000600020000000800040000000600020000000600020000000600030000001300090000001300090000
SALV188     001200080000001200090000001200080000001200070000001200080000001200070000000700050000000400020000000300010000000300010000000400010000000300020000000300020000000400020000000400020000000300010000000300020000000400030000000300020000000400030000000400030000000400040000000400030000000300020000
SALV189     000300020000000300020000000400030000000300030000000500030000000300030000000300020000000200000000000300010000000300020000000300020000000300010000000200010000000200010000000300010000000300010000000300020000000300020000000400030000000400030000000300020000000300010000000300030000000400030000
SALV190     000300020000000300030000000300020000000300020000000300020000000300020000000300030000000400020000000300020000000300010000000200010000000300010000000300020000000400030000000300020000000400020000000300020000000300020000000400020000000300030000000500030000000400040000000300030000000300020000
SALV191     000300020000000300010000000300010000000300020000000300020000000200010000000300010000000200000000000200000001000100000000000200000000000300010000000200010000000200010000000200000000001400010000002300010000002200010000002300020000002300020000005600600000018701520000026401750000032902050000
SALV192     036502270000013701540000031401990000037902300000014401570000019101540000031801950000031001990000011401370000026201770000035002120000003000220000004600420000032502030000018201790000024201730000033502040000038202470000028102230000016401840000029802180000037702420000034202360000018401780000
SALV193     031402170000041202580000036102510000023901940000036902390000041502640000028102120000016401440000031601940000037002170000027801890000017401450000031601950000039002320000018801600000031101950000038102250000029501920000015101490000026501690000025901680000019301560000022301650000040302410000
SALV194     037002180000018001550000031601970000036702150000030601860000009401290000025001670000036902170000028001830000017701460000034502050000034902060000021101620000024601690000035002070000033501980000024001750000022901620000034102010000028801920000031402210000055803320000006501360000016302000000
SALV195     056603840000056203860000037503250000048603710000038903310000019001890000020601870000019101870000022201930000021201880000019301830000020401860000017001800000020801880000034503020000040903320000054103910000050703830000048303560000052603860000044303490000060004070000057404040000041903380000
SALV196     058904090000056104010000038503350000051703800000052503810000040103470000048703590000038703330000042603370000046503430000032803190000027903120000047803500000036103260000035803250000047603590000044103270000025401730000030901890000032001920000030701860000018801520000037202220000039102300000
SALV197     022201650000028001790000029901830000025501740000016301510000030601870000031401870000019201540000033001970000029001780000023701680000023801640000030701860000031401910000001600210000000600020000000600040000000600030000000500020000000500020000000500020000000400010000000500020000000500020000
SALV198     000500030000000600020000000500010000000500010000000500010000000600020000000500020000000600020000000600020000001700020000000700010000000700000000000700000000000700010000000800020000000700010000000800010000000600010000000700000000000700000000000700010000000700010000000700000000000800030000
SALV199     000800020000000600010000000700000000000700020000000900020000000800020000000800020000000700020000000900010000003200020000001000010000000700030000000900030000000800030000000800040000000600010000000600020000000600020000000700030000000700030000000600020000000600010000000600010000000600010000
SALV200     000500010000000600010000000700020000000600020000000600010000000500000000000600010000000700030000000800050000000800040000000800040000000700030000000800030000000700030000000700030000000700040000000800030000000800040000000800040000000700030000000700030000000500040000000500030000000300030000
SALV201     000400020000000300010000000300000000000300010000000300020000000300010000000300010000000300010000000300010000000200000000000300000000000300010000000400030000000400020000000300020000000300010000000300010000000300010000000300020000000300020000000400020000000200020000000300010000000300010000
SALV202     000300020000000400020000000300020000000400030000000300010000000200000000000200000001000200000000000200000000000300020000000300000000000300010000000100000000000200000001000300000000000300010000000300020000000300020000000400020000000300010000000300010000000200010000000300010000000400020000
SALV203     000400030000000400030000000300010000000300020000000300010000000200000000000300010000000300010000000300010000000200010000000200000000000300000000000200000000000200000000000300000000000300010000000200010000000400020000000200010000000300010000000300010000000500030000000700040000000800040000
SALV204     000600030000000300020000000600020000000600020000001700330000015801410000020901550000033702020000035502130000023501730000030101840000029501960000025501710000034402040000027501930000028401780000035502090000028001880000026801730000035402090000039302400000025301680000037402170000038802250000
SALV205     037502190000004700380000001200040000001200060000000800040000000600030000000600020000000600020000000800030000000800030000000600030000000800040000001000040000000700030000001100030000000800020000000800020000000800030000000700020000000800020000000800020000000200000000000000000000000000000000
SALV206     000000000000000000000000000000000000000000000000000500030000001000050000002600040000001600020000001800030000002400040000002500030000002400020000003000060000003200070000003200080000003100080000001200070000001100060000001300060000001300070000001400070000001300070000001400080000001300070000
SALV207     001300060000000800040000000400020000000500020000000600030000000400030000000400020000000300020000000300010000000300010000000300020000000500030000000400030000000500030000000400020000000400020000000300020000000300010000000500030000000400030000000400030000001000020000000400020000000500020000
SALV208     000400020000000300020000000400020000000500030000000500030000000500020000000400020000000500020000000600030000000600040000000500030000000600040000001500030000001000030000000500020000000400020000000500020000000600040000000600030000000500030000000500020000000500020000000500020000000500030000
SALV209     000700030000000600030000000700030000000500030000000500020000000500030000000500020000000600030000001800040000001500040000000600030000000500020000000400010000000600030000000500030000000500030000000500020000000500020000000500020000000700020000000400020000000400010000000500030000000500020000
SALV210     000500020000000400020000000400020000000400010000000400010000000500020000000300020000000400020000000400010000000300010000000400010000000300000000000400020000000500030000000400020000000600010000000400010000000400010000000400000000000400010000000400010000000400010000000500020000000400010000
SALV211     000600010000000500000000000600020000000600010000000600030000000600020000000700030000000700020000000700020000000700010000000700020000000900020000000700020000000500020000000500020000001400020000001000010000000400010000000300020000000500020000000400030000000400030000000500030000000400030000
SALV212     000400020000001200030000003000020000000800020000001900010000001800020000000400020000000300020000000300020000000400020000000300030000000300010000000300010000000200010000000400020000000400030000000300040000000400030000000400020000000300020000000300020000000300030000000400030000000400030000
SALV213     000400030000000300030000000300020000000300020000000400020000000400040000000400030000000300030000000300010000000300010000000100000000000200000000000300000000000200010000000200010000000200010000000200000000000200000000000200010000000400020000000300020000000200020000000300010000000200010000
SALV214     000200020000000300010000000500020000000400020000000500030000001000010000001000020000000500010000000400020000000400020000000400010000000400000000000400010000000300000000000400000000000400000000000400020000000500010000000400010000000400010000000500020000000400010000000500020000000500030000
SALV215     000500020000000500030000000500020000000500020000000400020000000500020000000600030000000500030000000400020000000500020000000300000000000300000000000400000000000400000000000400010000000400010000000400010000000300000000000300000000000400000000000400010000000500020000000400020000000300030000
SALV216     000100010000000100010000000200010000000200020000000300020000000200030000000300020000000100020000000200010000000100010000000200010000000300030000000300030000000300030000000200030000000200010000000100010000000200010000000200020000000200010000000600020000002600020000000800000000000200010000
SALV217     000300010000000300020000000400030000000400030000000400030000000300020000000300020000000400020000000400030000000300020000000300030000000300010000000200020000000300010000000300020000000300020000000300020000000300020000000200010000000300010000000200020000000200020000000200020000000200030000
SALV218     000200010000000200020000000300020000000400030000000400020000000300030000000400020000000300020000000300020000000400030000000400030000000400030000000300020000000300020000000300020000000500030000000600030000001100020000001000020000001000030000000500030000000400020000000400030000000300030000
SALV219     000400030000000400030000000300030000000300020000000300020000001400020000000800030000003700080000003200080000002700080000001200080000001200080000001200080000001100060000001100070000001100070000000800050000000400030000000600030000001000030000000400030000000500030000000300030000000300010000
SALV220     000400020000000400030000000400030000000400030000000500030000000400030000000400030000000400030000000400020000000300020000000400020000000300020000000400030000000400020000000400030000000400020000000300030000000400030000000400020000000300020000000400020000000300020000000400020000000400030000
SALV221     000500030000000400040000000500030000000400030000001900030000000800030000000400030000000500030000000600040000000500030000000500030000000600030000000500030000000500040000000500030000000600030000000500030000002000020000002000020000002000030000000500030000000500040000000500030000000500040000
SALV222     000400030000000400030000000300020000000400020000000300020000000500030000000400030000000400030000000400020000000300020000000300020000000300010000001300010000000800010000000400020000001600020000000900020000000500020000000500030000000500030000000500030000000500020000000400020000000300010000
SALV223     000300020000000200010000000300010000000200000000000300010000000300020000000300020000000300010000000400020000000400020000001900030000001900030000000900040000000500040000000500050000000600040000000600030000000500030000000600020000000500030000000600030000000500030000000500030000000600030000
SALV224     000600020000000500020000000500020000000500020000000500020000000600030000000500030000000600020000000500020000000400020000000500010000000500020000000600030000000500010000000500020000000500010000000400010000000400000000000400000000000500010000001700020000000500020000000400020000000500030000
SALV225     000500030000000400020000000400020000000400020000000400020000000500030000000300020000000400020000000400010000000300010000000300010000000400020000000400020000000400020000000500030000000300010000000400020000000300010000000400020000000500030000000400030000000500020000000300010000000300010000
SALV226     000400010000000300010000000300010000000400010000000300010000000300010000000300000000000300010000000400010000000400020000000400030000000400030000000400020000000300010000000300010000000400010000000300020000000500020000000400030000000400020000000300020000000400010000000300010000000300020000
SALV227     000400020000000400020000000400020000000200000000000300000000000200000000000300000000000300010000000300010000000400010000000200000000000300000000000200000001000300000000000400020000000400020000000500030000000300020000000400010000000400010000000400020000000400020000000400020000000400020000
SALV228     000400020000000300020000000400010000000300020000000400020000000500030000000400020000000400020000000400020000000400030000000400010000000400010000000400030000000400010000000500030000000400010000000400020000000400010000000400020000000400020000000400020000000500020000000400030000000500020000
SALV229     001700030000000800030000000700030000000500020000000500020000000500030000000500020000000400010000000500020000000400010000000500030000000500020000000600030000000500010000000400020000000500020000000500020000000700040000000700030000000500020000000500030000000500010000000900050000001200060000
SALV230     001300070000001200070000001300070000001300060000001300070000001200050000003400240000019101670000024602000000027302370000039903290000043403350000054703870000056503930000039803380000050003640000056103990000040503330000056903900000049503740000041103320000053103710000045503420000030502930000
SALV231     041103400000055903780000058104000000041403330000054803740000059204010000061004190000041203450000044503400000050703650000059704040000039803380000049503690000059404100000060404230000043903680000044103520000061504130000058103940000050003780000055503810000065704320000046103690000059303990000
SALV232     059404200000052503860000041603410000054403830000040503250000029802790000005501270000022502030000023802030000021401960000020301590000004100210000000900030000001000030000000900030000000900040000000800020000000900040000000700030000000700030000009401300000014701410000021201540000025501650000
SALV233     025401660000024001610000015401490000024901710000036002120000029401850000021901560000015101480000030701910000029401820000025801690000013401450000030701900000019401480000010600910000000500030000000500030000000500030000000500020000000300010000000400020000000400020000000400030000000300020000
SALV234     000400020000000500020000000400000000000300000000000400000000000500000000000500020000000500010000000500010000000500010000000600010000000500000000000700010000000900020000000800030000000900020000000800030000001200040000001500060000001400060000002900060000002700070000003100070000001500070000
SALV235     001400080000001500070000001200050000000700030000000700030000000800040000000700030000000800030000000700030000000600020000000800020000000700020000001800330000011701340000023801660000030801880000033902020000034102020000030801870000014701440000032001930000028201770000033702000000017001500000
SALV236     027101790000032001930000028901780000011101410000029001840000033302000000020801600000022601610000035102140000028301780000012601370000035202090000038202240000026301790000025601800000037302200000024201660000019501550000035502100000030201840000026701800000021701680000034102040000029601840000
SALV237     014301400000035602140000035802110000021801640000021301590000032602000000030901870000020101600000014201440000030601890000034802110000031902000000017401640000026501810000033802050000024801710000011401440000033002030000040502390000022201690000024901750000037102230000015901510000030502020000
SALV238     033302030000013401420000029801860000030301870000011701450000029001840000030601900000013701460000029601900000028501810000016401100000001300090000000400020000000400030000000400040000000400030000000500040000000400030000000300020000000400030000000400020000000400040000000400020000000400020000
SALV239     000300020000000300010000000400020000000300020000000400030000000500030000000400020000000400030000000400030000000400030000000500030000000500040000000600050000000600040000000600040000000500030000000500030000000500030000000600040000000500040000000600050000000500030000000600040000000800040000
SALV240     002800040000003100030000001000050000000800040000000500030000000500020000000600020000000700020000000900030000000600020000000600030000000700030000000600030000000600030000001000030000001100040000001200040000000900040000000600030000005800550000029003180000033403200000045403580000055503990000
SALV241     037503370000046003580000056804020000037003380000046303540000058404090000039803520000046103560000057104000000043903590000041503350000054003810000062104250000044403640000047003540000051603820000036203260000052403760000055403820000038103390000046603620000055003850000051903810000037003290000
SALV242     056403920000051603620000040903350000046503480000053903700000024501880000015701420000030801870000038802240000036402210000014701400000032701970000039802320000014601490000027101750000039102270000039302310000017501510000023501680000038102230000042302440000042202440000020001590000036102120000
SALV243     039902310000028302000000024201660000036502130000038702230000016701500000031902090000060204190000044203510000032902660000019501840000026502410000051003660000061204170000048503800000041703410000056603950000053103800000034303060000018501850000031002700000055303870000060204110000042703440000
SALV244     046603540000052903730000061204130000047203660000041803460000049403640000048003580000028502880000049003720000059404030000054103750000032903190000050903770000057203990000051003740000036603320000057303960000052503760000025002330000022201610000029001830000032601950000022701710000016101450000
SALV245     030301860000032501940000006901380000004200910000000500020000000600020000000600020000000800030000001000030000000900040000000500010000000400020000000400020000000400020000000400020000000400020000000400010000000300010000000300000000000300010000000400010000000400010000000400010000000500010000
SALV246     000500020000000400020000000500010000000500020000000500020000000500010000000400010000000400020000000500020000000500020000000400020000000500030000000400020000000500020000000500030000001700020000001700010000000400020000000400000000000400000000000400020000000500010000000500020000000400010000
SALV247     000600020000001200060000001100050000001100050000001100050000001200050000001200070000001200060000001200060000001100060000000600010000000700060000004700670000012201290000015301360000029001800000024501680000017401490000030901890000028901790000019901620000023201660000032701960000028501790000
SALV248     018001530000027101780000033502000000022301590000001500090000000500000000006300750000022301630000032001960000023401740000022901690000033501990000022401680000021401590000032901980000024101760000022901660000030801900000026101780000017201560000031301920000032101940000013001390000028301820000
SALV249     032001940000020001610000024301670000029101810000030201890000010001040000025301700000031701920000029101850000001200100000000700040000000600040000000800040000005100730000020501560000030501890000025001710000017001500000028201820000030201870000013501440000027201790000030201860000020301610000
SALV250     019201530000028801810000028901810000016401490000027901800000029901860000013401430000027201760000029501840000029801850000015401460000026601770000033502000000015501470000029301850000030401870000018301570000021701640000033502020000019101600000022101600000030201870000016001500000019201520000
SALV251     003800380000000600030000000500020000000600020000000400010000000400010000000300020000000400020000000400020000000300030000000300000000000300010000000300010000000200010000000400020000000500040000000400030000000300020000000400020000000300020000000400020000000400030000000400030000000400030000
SALV252     000300020000000300020000000400020000000300020000000300020000000500030000000400020000000500020000000700030000000700020000000500010000000700020000000900030000001400070000015901680000018401880000021401930000022101940000021802090000033203140000035103200000037503260000053903830000059904160000
SALV253     040803530000041603390000054403840000030302470000022201910000035203070000055003980000031303180000043203440000053603880000057104100000047603830000036803400000057304030000051903890000056704060000038403480000039103390000046403610000052203920000050203880000028203130000044503590000058304030000
SALV254     062404280000039003460000038303320000050303700000059104110000027902080000001000070000000400030000000400030000000500040000001000070000001100060000001000070000001100060000001100070000001100080000001100060000001100080000001400200000018401480000028201790000039302300000043002540000019601640000
SALV255     024401650000036302140000036402150000018501570000019001470000048803570000060104110000052103890000040503310000054803830000056404050000040103320000051603710000057103920000048603660000041803380000054503910000055303870000061804180000042703590000039903360000053903770000059104100000048203760000
SALV256     037503320000048703680000054603900000058604090000031502800000021302010000023302030000026902180000027602200000017601900000015001850000016201880000026202160000025402100000025802100000017201600000000600010000000400020000000400030000000300020000000400020000000600030000000500010000000300020000
SALV257     000300020000000400030000000300020000000400030000000300020000000400030000000300010000000200010000000300020000000300020000000300020000000400030000000300020000000400030000000300020000000300010000000300020000000700010000000300020000000400020000000400020000000400010000000300020000000200000000
SALV258     000200000000000200000000000200010000000300010000000200020000000400030000000300020000000300020000000300030000000300020000000500020000000500040000000600030000000600040000000500030000000300020000000300020000000400020000000300020000000400030000000400030000000400030000000300030000000300020000
SALV259     000300020000000300010000000300020000000400030000000400030000000300020000000500030000000600010000001800010000001400010000000700030000000600020000001800020000002800030000001200020000002200030000000700030000000600030000000600020000000700030000000700030000000700020000000600030000000800030000
SALV260     000700030000000700030000000900030000000700020000000600020000000800020000000700030000000700030000000700030000000700040000000700030000000700030000000600010000000600020000000600010000000600020000000600020000000600010000000500010000000400010000000500010000000400020000000600020000000600040000
SALV261     000500030000000600030000000600030000000400020000000500020000000400020000000500030000000500030000000600030000000600040000000500040000000500020000000500030000000500020000000500040000007600970000016701430000018901470000015901430000015901430000015101410000024601660000021701620000008201330000
SALV262     011701370000017001460000027601770000022401680000009901390000012901400000017701490000026601750000028801850000009301360000014201420000021001590000029601850000022501670000012601400000015201440000026201730000024101700000009901420000014201430000025101700000029001820000027301760000012101380000
SALV263     014901410000019901540000026901740000027901770000028201770000015301500000014101400000024901680000029301840000024301760000011201450000020001600000027401770000022101680000012801390000017401510000028001810000022101610000000600030000000600030000000600030000000500020000000500020000000500020000
SALV264     001000040000000800030000000900050000001700070000001600080000001700080000001300060000001200060000007201050000012101390000015901460000024901710000031501940000034802100000018601610000021901600000031401920000037202210000029602030000018901520000028901790000034102040000030501970000014901420000
SALV265     027801770000033902010000039702390000047403850000034503180000047403600000057004020000061704260000044603340000018601860000035703010000047203710000043803420000054803830000054903830000060004110000044803610000045903600000058504060000045503310000022601980000044003390000049403670000043803540000
SALV266     044603600000053403920000046803720000052603810000042903590000039403360000026901760000026401720000033102010000033402110000014401430000020101550000034002040000036702190000022801770000016001440000024301660000032901990000031901960000031102940000039303340000050303640000055003960000055303910000
SALV267     045903610000042003480000050603750000058204060000059704130000060604300000034803250000021501940000019701900000018201880000020501910000021201930000019401880000032703080000052903730000056203890000057204110000014201640000010401690000011001590000003401130000020802410000057804020000040003350000
SALV268     037302360000041802550000035202080000018301550000020701560000029401820000029301810000030501860000016401470000026901740000029001790000025901680000018701520000031801930000030601860000027301730000012801450000021101560000026901720000027901720000027501690000018801510000023401630000030701900000
SALV269     030501870000009501480000002100800000001300070000001200070000001500070000001500070000001200060000000500010000000400010000000300010000000400010000000400010000000500020000000400010000000300000000000300010000000500020000000400020000000400020000000500020000000400020000000500020000000400010000
SALV270     000500010000000500010000000600010000000600030000000600020000000600030000000600010000000500020000000500010000000600020000001000020000001000030000000900020000001000020000000900010000000900020000000900010000000900020000001000020000000900010000000900020000000900020000001000020000000900020000
SALV271     000900020000000900020000001000020000001000030000000900030000001000020000000900030000001000030000000900030000001000030000001100040000001000040000000900030000000900020000001500030000002900030000001000040000001500030000002500040000001000030000000700030000000700020000000800030000000700020000
SALV272     000700010000000700010000000700020000000700020000000700000000000600000000000700010000000600000000000700020000000700010000000800020000000800030000000700020000000600030000000700020000000600030000000800040000000700040000000800040000000800040000000700030000000600030000000700030000000700030000
SALV273     000700040000000700040000000800030000000600040000000600030000000500010000000500020000000900030000000500030000000500020000000500020000000600020000000500020000000500020000000500030000000600030000000700050000000700040000000600040000000600030000000600040000001500300000010301350000010901350000
SALV274     019201540000030901910000028401810000024901770000014801450000023501670000030501890000023301760000013601420000026701750000030401880000026401810000013201410000022901650000030701890000029301830000033202000000014701510000017801500000027601770000027601820000000700040000000600030000000500030000
SALV275     000600020000000500020000000500020000000500020000011501400000017801490000029601870000032301960000021501660000020901580000029301840000030601880000024801740000012701390000026901800000033402010000006700510000000500020000000500020000000800110000000700040000000700050000000600040000000800060000
SALV276     000500030000001000040000000900050000000900050000001100060000001000050000000700050000000600040000008101090000012701350000014001380000025701720000032101940000034702080000019101630000018301520000031501930000033002030000036502160000024501900000018401540000033002000000033602030000039402320000
SALV277     024701820000015201450000027301770000036402080000025801870000020801600000031101900000032701980000040102370000014701460000026801740000035502100000036502160000008601300000019901530000028201760000032001920000022101770000014501510000022701710000032202020000028901840000026001670000021901640000
SALV278     012401330000025401650000030201820000026701680000009901380000017501430000026301670000026601680000030601860000035902090000018601600000019401480000029101780000036702130000011401330000020501530000031201890000035102070000026701860000014501390000027701770000034602050000038502280000040702390000
SALV279     013101420000028501810000032201920000030301830000029001780000035102050000022201720000017601500000029801850000035902140000026101780000010401390000013301430000014801410000023201670000030501890000038802290000039602310000017601680000019301510000029501850000039302320000040102340000013101480000
SALV280     027401790000035002090000007500480000000400000000012101000000034302050000011901410000024201620000029101790000025901660000013200960000000400020000000200020000000300020000000400020000000300040000000400030000000300030000000300020000000400020000000300030000000600040000001100070000001000080000
SALV281     000900070000000900060000000900060000000900070000001100080000001000070000001400070000001600070000001700060000001700060000001100030000001100030000001000030000001000020000001000020000001100020000001100030000001100010000001100010000000800030000000500030000000600020000000500020000001800020000
SALV282     000700020000000400020000000500040000000600030000000600040000000700030000000700030000000600030000000700040000000700040000000700040000001800030000002300040000002200040000002200030000002200040000002300050000001000050000000700030000000600030000000500030000001000030000002500040000003300040000
SALV283     002600040000001300030000001200030000001300030000001300040000001400040000001400050000001300020000001200020000001300020000001900020000005200030000004400030000002700030000002800030000002800040000001900040000000600040000000600040000000600050000000500030000000500030000000500030000000600030000
SALV284     000500030000000500030000000500040000001700040000003600080000002700070000002600070000002300070000001100080000001200080000001100080000001100060000001000070000000700040000000400030000000400030000000400030000000400030000000400020000000300020000000300020000000300040000000400050000000400040000
SALV285     000200040000000300030000000400040000000300040000000400040000000300040000000400040000000300040000000300030000000300030000000300040000000400050000000400040000000400050000000300040000000300030000000400030000000300030000000300040000000300030000000300030000000400030000000200030000000300020000
SALV286     000200030000000400030000000400030000000400040000000300040000000400030000000300030000000400040000000400030000000300040000000400050000000300040000000300030000000300030000000300030000000300020000000300040000000400030000000300030000000200010000000100000000000200010000000200010000000200010000
SALV287     000200020000000200020000000300010000000100010000000200000000000100010000000400020000000400030000000300030000000400020000000300020000000300030000000300020000000200030000000400030000000300030000000400040000000300040000000300020000000300020000000100010000000200010000000300020000000200020000
SALV288     000300020000000100000000000200010000000200020000000200000000000200020000000200020000000300030000000300020000000200020000000200010000000200020000000300020000000300040000000300020000000400030000000200020000000400030000000700030000001100020000001100020000001100030000001200030000001200020000
SALV289     001100010000001100020000001100010000001200020000001200020000001200010000001100010000001200010000001100010000001200010000001200020000001200020000001900070000002000060000001700070000001300060000001300070000001300070000001300080000001300070000001300080000001200080000001200060000000600030000
SALV290     000600020000000600040000000500040000000800040000000600030000000600040000000400020000000600030000000700030000000800050000000600040000000600030000000700030000000600020000000500030000000600030000001100070000001500090000001400080000001200070000001300060000001300080000001300070000001300070000
SALV291     001200070000001200060000001200060000001100060000001200060000001300070000000900050000000400020000000400010000000300020000000200010000000300020000000400020000000300030000000300020000000300020000000400020000000300020000000400030000000400030000000300020000000300020000000300010000000300010000
SALV292     000400030000000400030000000400030000000400030000000500040000000400020000000300030000000400020000000400030000000500040000000400030000000600040000002100030000001500030000001600030000001800020000000300020000000400020000000400030000000400030000000400020000000400030000000500030000000400030000
SALV293     000300020000000400020000000400020000000400020000000400030000000500040000000500030000000500030000000400030000000500040000001100020000002100030000002000020000000900030000001200020000001300030000003100020000002000020000001200040000001100030000001200030000002700030000004900030000004200030000
SALV294     002200030000002400030000002900040000004400030000004700060000004300070000003400080000002200080000003000070000003400070000003400070000002400080000003500060000002600070000001300030000001200020000001700030000002300060000002200070000002100070000002200070000002100070000002100060000002400070000
SALV295     001900050000002200060000001100040000000700020000000600010000000600010000000500010000000700020000000500000000000600010000000700020000000700030000000800040000000900080000001000070000000900080000000900070000000800070000000900070000000900080000000900090000000900070000001000080000000900070000
SALV296     001000080000000700070000000600060000000600060000000700070000000700080000000700070000000700070000000600070000000300020000000300010000000300010000000300020000000400030000000300020000000300010000000400020000000200000000000400010000000300020000000300010000000400020000000300020000000300020000
SALV297     000300000000000300010000000300020000000400020000000400030000000400030000000400030000000400020000000300020000000300020000000400030000000500030000000400040000000400030000000400030000000400030000000500030000000400030000000500030000000400030000000400020000000300020000000300010000000300000000
SALV298     000200010000000400020000000300010000000300010000000300010000000300010000000300020000000200010000000300020000000400030000000400020000000500020000000300020000000400010000000400020000000500030000000400040000000500030000000400030000001100020000001300010000000300000000000400020000000400010000
SALV299     000400020000000300020000000300010000000300010000000300000000000300020000000400020000000400030000000400030000000400020000000400030000000300020000000400020000000400030000000400030000000500040000000400030000000500030000000400020000000400020000000500020000000400030000000300020000000400020000
SALV300     000200010000000300020000000200010000000300010000000200020000000300030000000300030000000300020000000200030000000200010000000300020000000300030000000200030000000300030000000500090000000400100000000400030000000200020000000200020000000200020000000400040000000300030000000300030000000200020000
SALV301     000200020000000200010000000200020000000200020000000200010000000900060000001000070000000900050000000900050000000800050000001000060000001000070000001000070000001200070000001100070000001200070000001100070000000800040000000600040000000600040000000600050000000700060000000800080000000400020000
SALV302     000600040000000500030000000400040000001300040000001600030000001100030000000600030000000900030000001200040000000800040000000700020000000800030000000500020000000600040000000500030000000400030000000500030000000500030000000500020000000400030000000500020000000500030000000600040000003100020000
SALV303     002800030000000500020000002500020000000500020000000500030000000400030000000500030000000600030000000400020000000400020000000400030000000500030000000500030000000500030000000500030000000400020000000500030000000500020000000500040000000500030000000600040000000400030000000500020000000600020000
SALV304     000500020000000600030000000600030000000600030000000700030000000600040000000500020000000600020000000700080000000900100000000800100000000600040000000700040000000700030000000600040000000700040000000700040000000600030000000700040000000600030000000600030000000600030000000600030000000600040000
SALV305     000700030000000600040000000600040000000700030000000600040000000700040000000600030000000700040000000600030000000600040000000500040000000600030000000600040000000500030000000600030000000500030000000500030000000500030000000500020000000400020000000500020000000500040000000300020000000400030000
SALV306     000300020000000400020000000300030000000300020000000400020000000500030000000600020000000800030000001800040000001500070000002100070000003300060000003200060000002100070000003500060000003400060000002300050000001500050000001100040000000700020000000900030000000700010000000800010000000700020000
SALV307     000700010000000700020000000900030000000700010000000700020000000700010000000800020000000800030000000800030000001600030000003300030000001300030000000800020000001500030000002400020000000700030000000600020000001900030000002100040000001100040000000600040000000600040000000400030000000300020000
SALV308     000300030000000200020000000400030000000400030000000500030000000300030000000400010000000200010000000300010000000300010000000400020000000300020000000400020000000400020000000300020000000400020000000400030000000400040000000500040000000500030000000500040000000400030000000500040000000400020000
SALV309     000400030000000300020000000400040000000400040000000300030000000400040000000300030000000400030000000300030000000200020000000300020000000300020000000400030000000400030000000300030000000300030000000400030000000300020000000400030000000400040000000400040000000500040000000300040000000300030000
SALV310     000300020000000400030000000300040000000400030000000300040000000400030000000400040000000300030000000300030000000300020000000300030000000300020000000300020000000300020000000300020000000200020000000300020000000200010000000300010000000200020000000300020000000300040000000300030000000300020000
SALV311     000200020000000300030000000300020000000300030000000300030000000700030000001100030000000300030000000200020000000200020000000300020000000300030000000200020000000300020000000300030000000200010000000300020000000200020000000200010000000200020000000300030000000500090000000500090000000400070000
SALV312     000200020000000400030000000200030000000300030000000400030000000400040000000400040000000300030000000300020000000200030000000300020000000400030000000500040000000400030000000400020000000400010000000400020000000400010000000500030000000400030000000400020000000400030000000300030000000300010000
SALV313     000400020000000400040000000500030000000400040000000400030000000500030000000400030000000600020000000600040000001200070000001400090000001300080000001300080000001300070000003000070000002400080000001300070000001400090000001300080000001400080000000600030000000500030000000500030000000500030000
SALV314     000600030000000500040000000600040000000400020000000500030000000500030000000600040000000600040000000600040000000500040000000500030000000600030000000500040000000600040000000700040000000600050000000600040000000600040000000600040000000500030000000500040000000500030000001200070000001300080000
SALV315     001300090000001300070000001300060000001200070000001200060000001200060000001300070000001300070000001400080000001300070000001300070000001600070000003300070000003200080000003100080000002900080000003200080000000800050000000500030000000500020000010800900000016201610000022501940000025602000000
SALV316     020601890000022001950000023701970000025102010000019601870000022402000000025302060000024302040000024202040000026502050000026301990000024401930000024501940000025502000000023901970000022101960000020101930000023302040000024602100000020301990000026502120000022702030000029102200000024002010000
SALV317     026902110000023902040000027402100000019301750000001000040000000900030000000700030000000700030000000800040000000700040000000600040000000700040000000600030000000600030000000700040000000700050000000800040000000700050000000700040000000600040000000700040000000600030000000500020000000600030000
SALV318     000800030000000800030000000800040000000800040000000700030000000800030000000800030000000800030000000900030000000900040000001000040000001000030000002400030000000900020000000900030000000900020000001000030000001100030000001000030000001000030000001000020000002400030000002800020000001000040000
SALV319     001000030000001600070000001700070000001700070000002600080000002800080000001800080000001700080000001700090000001700080000001600070000001200050000001000030000001100040000001000040000001100040000001100040000001000050000011901290000014401360000013901360000020501550000031101900000030901900000
SALV320     021301650000023401690000033202010000032501970000016801530000029501860000030301860000023401710000021201560000030801830000033201910000037402110000031901990000023001650000032901980000034802070000025501800000019801540000031101920000034002030000017801580000024201700000033702010000031201980000
SALV321     020301620000033302020000031301930000033102000000022901760000024701720000032201950000035002070000029701930000022501650000031901960000034502050000032302000000016201500000027001760000029701860000030801900000026601860000021101620000031201920000032701980000020901620000028901860000033202010000
SALV322     030401890000017301520000026901750000030001860000002300230000000600040000001700040000000600040000000500020000000500030000000500030000000500030000000600040000000600040000000600050000000500030000000500030000000500030000000500020000000500040000000600040000000500030000000500040000000500020000
SALV323     000400020000000500020000000500030000000600030000000400020000000500030000000400010000000400000000000300010000000500020000000500020000000400030000000500020000000500020000000500030000000500020000000600030000000700040000000600030000000500040000001000040000001000040000000800040000000900030000
